:100000000EC01DC01CC01BC01AC019C018C017C02C
:1000100016C015C014C013C012C011C010C01124E6
:100020001FBECFE5D2E0DEBFCDBF20E0A0E6B0E04E
:1000300001C01D92A236B207E1F702D023C0E0CF83
:1000400087B1826287B986B1866886B983B183B980
:100050008AB583688ABD83B7816083BF87B38160B7
:1000600087BB7894109261001092600085B184B1D2
:1000700084B195B186B1806486B9369BF7CF85B1DE
:0800800089BDFBCFF894FFCF0E
:00000001FF
